{
	"contracts/Escrow.sol": {
		"Escrow": {
			"abi": [
				{
					"inputs": [
						{
							"internalType": "address",
							"name": "_buyer",
							"type": "address"
						},
						{
							"internalType": "address payable",
							"name": "_seller",
							"type": "address"
						}
					],
					"stateMutability": "nonpayable",
					"type": "constructor"
				},
				{
					"inputs": [],
					"name": "buyer",
					"outputs": [
						{
							"internalType": "address",
							"name": "",
							"type": "address"
						}
					],
					"stateMutability": "view",
					"type": "function"
				},
				{
					"inputs": [],
					"name": "confirmDelivery",
					"outputs": [],
					"stateMutability": "nonpayable",
					"type": "function"
				},
				{
					"inputs": [],
					"name": "currentState",
					"outputs": [
						{
							"internalType": "enum Escrow.State",
							"name": "",
							"type": "uint8"
						}
					],
					"stateMutability": "view",
					"type": "function"
				},
				{
					"inputs": [],
					"name": "deposit",
					"outputs": [],
					"stateMutability": "payable",
					"type": "function"
				},
				{
					"inputs": [],
					"name": "escrowAgent",
					"outputs": [
						{
							"internalType": "address",
							"name": "",
							"type": "address"
						}
					],
					"stateMutability": "view",
					"type": "function"
				},
				{
					"inputs": [],
					"name": "refund",
					"outputs": [],
					"stateMutability": "nonpayable",
					"type": "function"
				},
				{
					"inputs": [],
					"name": "seller",
					"outputs": [
						{
							"internalType": "address payable",
							"name": "",
							"type": "address"
						}
					],
					"stateMutability": "view",
					"type": "function"
				}
			],
			"devdoc": {
				"kind": "dev",
				"methods": {},
				"version": 1
			},
			"evm": {
				"assembly": "    /* \"contracts/Escrow.sol\":86:2728  contract Escrow {... */\n  mstore(0x40, 0x80)\n    /* \"contracts/Escrow.sol\":752:1106  constructor(address _buyer, address payable _seller) {... */\n  callvalue\n  dup1\n  iszero\n  tag_1\n  jumpi\n  0x00\n  dup1\n  revert\ntag_1:\n  pop\n  mload(0x40)\n  sub(codesize, bytecodeSize)\n  dup1\n  bytecodeSize\n  dup4\n  codecopy\n  dup2\n  dup2\n  add\n  0x40\n  mstore\n  dup2\n  add\n  swap1\n  tag_2\n  swap2\n  swap1\n  tag_3\n  jump\t// in\ntag_2:\n    /* \"contracts/Escrow.sol\":821:827  _buyer */\n  dup2\n    /* \"contracts/Escrow.sol\":813:818  buyer */\n  0x00\n  dup1\n    /* \"contracts/Escrow.sol\":813:827  buyer = _buyer */\n  0x0100\n  exp\n  dup2\n  sload\n  dup2\n  0xffffffffffffffffffffffffffffffffffffffff\n  mul\n  not\n  and\n  swap1\n  dup4\n  0xffffffffffffffffffffffffffffffffffffffff\n  and\n  mul\n  or\n  swap1\n  sstore\n  pop\n    /* \"contracts/Escrow.sol\":871:878  _seller */\n  dup1\n    /* \"contracts/Escrow.sol\":862:868  seller */\n  0x01\n  0x00\n    /* \"contracts/Escrow.sol\":862:878  seller = _seller */\n  0x0100\n  exp\n  dup2\n  sload\n  dup2\n  0xffffffffffffffffffffffffffffffffffffffff\n  mul\n  not\n  and\n  swap1\n  dup4\n  0xffffffffffffffffffffffffffffffffffffffff\n  and\n  mul\n  or\n  swap1\n  sstore\n  pop\n    /* \"contracts/Escrow.sol\":936:946  msg.sender */\n  caller\n    /* \"contracts/Escrow.sol\":922:933  escrowAgent */\n  0x02\n  0x00\n    /* \"contracts/Escrow.sol\":922:946  escrowAgent = msg.sender */\n  0x0100\n  exp\n  dup2\n  sload\n  dup2\n  0xffffffffffffffffffffffffffffffffffffffff\n  mul\n  not\n  and\n  swap1\n  dup4\n  0xffffffffffffffffffffffffffffffffffffffff\n  and\n  mul\n  or\n  swap1\n  sstore\n  pop\n    /* \"contracts/Escrow.sol\":1026:1048  State.AWAITING_PAYMENT */\n  0x00\n    /* \"contracts/Escrow.sol\":1011:1023  currentState */\n  0x02\n  0x14\n    /* \"contracts/Escrow.sol\":1011:1048  currentState = State.AWAITING_PAYMENT */\n  0x0100\n  exp\n  dup2\n  sload\n  dup2\n  0xff\n  mul\n  not\n  and\n  swap1\n  dup4\n  0x03\n  dup2\n  gt\n  iszero\n  tag_6\n  jumpi\n  tag_7\n  tag_8\n  jump\t// in\ntag_7:\ntag_6:\n  mul\n  or\n  swap1\n  sstore\n  pop\n    /* \"contracts/Escrow.sol\":752:1106  constructor(address _buyer, address payable _seller) {... */\n  pop\n  pop\n    /* \"contracts/Escrow.sol\":86:2728  contract Escrow {... */\n  jump(tag_9)\n    /* \"#utility.yul\":88:205   */\ntag_11:\n    /* \"#utility.yul\":197:198   */\n  0x00\n    /* \"#utility.yul\":194:195   */\n  dup1\n    /* \"#utility.yul\":187:199   */\n  revert\n    /* \"#utility.yul\":334:460   */\ntag_13:\n    /* \"#utility.yul\":371:378   */\n  0x00\n    /* \"#utility.yul\":411:453   */\n  0xffffffffffffffffffffffffffffffffffffffff\n    /* \"#utility.yul\":404:409   */\n  dup3\n    /* \"#utility.yul\":400:454   */\n  and\n    /* \"#utility.yul\":389:454   */\n  swap1\n  pop\n    /* \"#utility.yul\":334:460   */\n  swap2\n  swap1\n  pop\n  jump\t// out\n    /* \"#utility.yul\":466:562   */\ntag_14:\n    /* \"#utility.yul\":503:510   */\n  0x00\n    /* \"#utility.yul\":532:556   */\n  tag_26\n    /* \"#utility.yul\":550:555   */\n  dup3\n    /* \"#utility.yul\":532:556   */\n  tag_13\n  jump\t// in\ntag_26:\n    /* \"#utility.yul\":521:556   */\n  swap1\n  pop\n    /* \"#utility.yul\":466:562   */\n  swap2\n  swap1\n  pop\n  jump\t// out\n    /* \"#utility.yul\":568:690   */\ntag_15:\n    /* \"#utility.yul\":641:665   */\n  tag_28\n    /* \"#utility.yul\":659:664   */\n  dup2\n    /* \"#utility.yul\":641:665   */\n  tag_14\n  jump\t// in\ntag_28:\n    /* \"#utility.yul\":634:639   */\n  dup2\n    /* \"#utility.yul\":631:666   */\n  eq\n    /* \"#utility.yul\":621:684   */\n  tag_29\n  jumpi\n    /* \"#utility.yul\":680:681   */\n  0x00\n    /* \"#utility.yul\":677:678   */\n  dup1\n    /* \"#utility.yul\":670:682   */\n  revert\n    /* \"#utility.yul\":621:684   */\ntag_29:\n    /* \"#utility.yul\":568:690   */\n  pop\n  jump\t// out\n    /* \"#utility.yul\":696:839   */\ntag_16:\n    /* \"#utility.yul\":753:758   */\n  0x00\n    /* \"#utility.yul\":784:790   */\n  dup2\n    /* \"#utility.yul\":778:791   */\n  mload\n    /* \"#utility.yul\":769:791   */\n  swap1\n  pop\n    /* \"#utility.yul\":800:833   */\n  tag_31\n    /* \"#utility.yul\":827:832   */\n  dup2\n    /* \"#utility.yul\":800:833   */\n  tag_15\n  jump\t// in\ntag_31:\n    /* \"#utility.yul\":696:839   */\n  swap3\n  swap2\n  pop\n  pop\n  jump\t// out\n    /* \"#utility.yul\":845:949   */\ntag_17:\n    /* \"#utility.yul\":890:897   */\n  0x00\n    /* \"#utility.yul\":919:943   */\n  tag_33\n    /* \"#utility.yul\":937:942   */\n  dup3\n    /* \"#utility.yul\":919:943   */\n  tag_13\n  jump\t// in\ntag_33:\n    /* \"#utility.yul\":908:943   */\n  swap1\n  pop\n    /* \"#utility.yul\":845:949   */\n  swap2\n  swap1\n  pop\n  jump\t// out\n    /* \"#utility.yul\":955:1093   */\ntag_18:\n    /* \"#utility.yul\":1036:1068   */\n  tag_35\n    /* \"#utility.yul\":1062:1067   */\n  dup2\n    /* \"#utility.yul\":1036:1068   */\n  tag_17\n  jump\t// in\ntag_35:\n    /* \"#utility.yul\":1029:1034   */\n  dup2\n    /* \"#utility.yul\":1026:1069   */\n  eq\n    /* \"#utility.yul\":1016:1087   */\n  tag_36\n  jumpi\n    /* \"#utility.yul\":1083:1084   */\n  0x00\n    /* \"#utility.yul\":1080:1081   */\n  dup1\n    /* \"#utility.yul\":1073:1085   */\n  revert\n    /* \"#utility.yul\":1016:1087   */\ntag_36:\n    /* \"#utility.yul\":955:1093   */\n  pop\n  jump\t// out\n    /* \"#utility.yul\":1099:1258   */\ntag_19:\n    /* \"#utility.yul\":1164:1169   */\n  0x00\n    /* \"#utility.yul\":1195:1201   */\n  dup2\n    /* \"#utility.yul\":1189:1202   */\n  mload\n    /* \"#utility.yul\":1180:1202   */\n  swap1\n  pop\n    /* \"#utility.yul\":1211:1252   */\n  tag_38\n    /* \"#utility.yul\":1246:1251   */\n  dup2\n    /* \"#utility.yul\":1211:1252   */\n  tag_18\n  jump\t// in\ntag_38:\n    /* \"#utility.yul\":1099:1258   */\n  swap3\n  swap2\n  pop\n  pop\n  jump\t// out\n    /* \"#utility.yul\":1264:1787   */\ntag_3:\n    /* \"#utility.yul\":1351:1357   */\n  0x00\n    /* \"#utility.yul\":1359:1365   */\n  dup1\n    /* \"#utility.yul\":1408:1410   */\n  0x40\n    /* \"#utility.yul\":1396:1405   */\n  dup4\n    /* \"#utility.yul\":1387:1394   */\n  dup6\n    /* \"#utility.yul\":1383:1406   */\n  sub\n    /* \"#utility.yul\":1379:1411   */\n  slt\n    /* \"#utility.yul\":1376:1495   */\n  iszero\n  tag_40\n  jumpi\n    /* \"#utility.yul\":1414:1493   */\n  tag_41\n  tag_11\n  jump\t// in\ntag_41:\n    /* \"#utility.yul\":1376:1495   */\ntag_40:\n    /* \"#utility.yul\":1534:1535   */\n  0x00\n    /* \"#utility.yul\":1559:1623   */\n  tag_42\n    /* \"#utility.yul\":1615:1622   */\n  dup6\n    /* \"#utility.yul\":1606:1612   */\n  dup3\n    /* \"#utility.yul\":1595:1604   */\n  dup7\n    /* \"#utility.yul\":1591:1613   */\n  add\n    /* \"#utility.yul\":1559:1623   */\n  tag_16\n  jump\t// in\ntag_42:\n    /* \"#utility.yul\":1549:1623   */\n  swap3\n  pop\n    /* \"#utility.yul\":1505:1633   */\n  pop\n    /* \"#utility.yul\":1672:1674   */\n  0x20\n    /* \"#utility.yul\":1698:1770   */\n  tag_43\n    /* \"#utility.yul\":1762:1769   */\n  dup6\n    /* \"#utility.yul\":1753:1759   */\n  dup3\n    /* \"#utility.yul\":1742:1751   */\n  dup7\n    /* \"#utility.yul\":1738:1760   */\n  add\n    /* \"#utility.yul\":1698:1770   */\n  tag_19\n  jump\t// in\ntag_43:\n    /* \"#utility.yul\":1688:1770   */\n  swap2\n  pop\n    /* \"#utility.yul\":1643:1780   */\n  pop\n    /* \"#utility.yul\":1264:1787   */\n  swap3\n  pop\n  swap3\n  swap1\n  pop\n  jump\t// out\n    /* \"#utility.yul\":1793:1973   */\ntag_8:\n    /* \"#utility.yul\":1841:1918   */\n  0x4e487b7100000000000000000000000000000000000000000000000000000000\n    /* \"#utility.yul\":1838:1839   */\n  0x00\n    /* \"#utility.yul\":1831:1919   */\n  mstore\n    /* \"#utility.yul\":1938:1942   */\n  0x21\n    /* \"#utility.yul\":1935:1936   */\n  0x04\n    /* \"#utility.yul\":1928:1943   */\n  mstore\n    /* \"#utility.yul\":1962:1966   */\n  0x24\n    /* \"#utility.yul\":1959:1960   */\n  0x00\n    /* \"#utility.yul\":1952:1967   */\n  revert\n    /* \"contracts/Escrow.sol\":86:2728  contract Escrow {... */\ntag_9:\n  dataSize(sub_0)\n  dup1\n  dataOffset(sub_0)\n  0x00\n  codecopy\n  0x00\n  return\nstop\n\nsub_0: assembly {\n        /* \"contracts/Escrow.sol\":86:2728  contract Escrow {... */\n      mstore(0x40, 0x80)\n      jumpi(tag_1, lt(calldatasize, 0x04))\n      shr(0xe0, calldataload(0x00))\n      dup1\n      0x5e10177b\n      gt\n      tag_9\n      jumpi\n      dup1\n      0x5e10177b\n      eq\n      tag_5\n      jumpi\n      dup1\n      0x7150d8ae\n      eq\n      tag_6\n      jumpi\n      dup1\n      0xd0e30db0\n      eq\n      tag_7\n      jumpi\n      dup1\n      0xe1f6c098\n      eq\n      tag_8\n      jumpi\n      jump(tag_1)\n    tag_9:\n      dup1\n      0x08551a53\n      eq\n      tag_2\n      jumpi\n      dup1\n      0x0c3f6acf\n      eq\n      tag_3\n      jumpi\n      dup1\n      0x590e1ae3\n      eq\n      tag_4\n      jumpi\n    tag_1:\n      0x00\n      dup1\n      revert\n        /* \"contracts/Escrow.sol\":403:432  address payable public seller */\n    tag_2:\n      callvalue\n      dup1\n      iszero\n      tag_10\n      jumpi\n      0x00\n      dup1\n      revert\n    tag_10:\n      pop\n      tag_11\n      tag_12\n      jump\t// in\n    tag_11:\n      mload(0x40)\n      tag_13\n      swap2\n      swap1\n      tag_14\n      jump\t// in\n    tag_13:\n      mload(0x40)\n      dup1\n      swap2\n      sub\n      swap1\n      return\n        /* \"contracts/Escrow.sol\":628:653  State public currentState */\n    tag_3:\n      callvalue\n      dup1\n      iszero\n      tag_15\n      jumpi\n      0x00\n      dup1\n      revert\n    tag_15:\n      pop\n      tag_16\n      tag_17\n      jump\t// in\n    tag_16:\n      mload(0x40)\n      tag_18\n      swap2\n      swap1\n      tag_19\n      jump\t// in\n    tag_18:\n      mload(0x40)\n      dup1\n      swap2\n      sub\n      swap1\n      return\n        /* \"contracts/Escrow.sol\":2478:2726  function refund() external onlyEscrowAgent inState(State.AWAITING_DELIVERY) {... */\n    tag_4:\n      callvalue\n      dup1\n      iszero\n      tag_20\n      jumpi\n      0x00\n      dup1\n      revert\n    tag_20:\n      pop\n      tag_21\n      tag_22\n      jump\t// in\n    tag_21:\n      stop\n        /* \"contracts/Escrow.sol\":2147:2393  function confirmDelivery() external onlyBuyer inState(State.AWAITING_DELIVERY) {... */\n    tag_5:\n      callvalue\n      dup1\n      iszero\n      tag_23\n      jumpi\n      0x00\n      dup1\n      revert\n    tag_23:\n      pop\n      tag_24\n      tag_25\n      jump\t// in\n    tag_24:\n      stop\n        /* \"contracts/Escrow.sol\":308:328  address public buyer */\n    tag_6:\n      callvalue\n      dup1\n      iszero\n      tag_26\n      jumpi\n      0x00\n      dup1\n      revert\n    tag_26:\n      pop\n      tag_27\n      tag_28\n      jump\t// in\n    tag_27:\n      mload(0x40)\n      tag_29\n      swap2\n      swap1\n      tag_30\n      jump\t// in\n    tag_29:\n      mload(0x40)\n      dup1\n      swap2\n      sub\n      swap1\n      return\n        /* \"contracts/Escrow.sol\":1779:2063  function deposit() external payable onlyBuyer inState(State.AWAITING_PAYMENT) {... */\n    tag_7:\n      tag_31\n      tag_32\n      jump\t// in\n    tag_31:\n      stop\n        /* \"contracts/Escrow.sol\":529:555  address public escrowAgent */\n    tag_8:\n      callvalue\n      dup1\n      iszero\n      tag_33\n      jumpi\n      0x00\n      dup1\n      revert\n    tag_33:\n      pop\n      tag_34\n      tag_35\n      jump\t// in\n    tag_34:\n      mload(0x40)\n      tag_36\n      swap2\n      swap1\n      tag_30\n      jump\t// in\n    tag_36:\n      mload(0x40)\n      dup1\n      swap2\n      sub\n      swap1\n      return\n        /* \"contracts/Escrow.sol\":403:432  address payable public seller */\n    tag_12:\n      0x01\n      0x00\n      swap1\n      sload\n      swap1\n      0x0100\n      exp\n      swap1\n      div\n      0xffffffffffffffffffffffffffffffffffffffff\n      and\n      dup2\n      jump\t// out\n        /* \"contracts/Escrow.sol\":628:653  State public currentState */\n    tag_17:\n      0x02\n      0x14\n      swap1\n      sload\n      swap1\n      0x0100\n      exp\n      swap1\n      div\n      0xff\n      and\n      dup2\n      jump\t// out\n        /* \"contracts/Escrow.sol\":2478:2726  function refund() external onlyEscrowAgent inState(State.AWAITING_DELIVERY) {... */\n    tag_22:\n        /* \"contracts/Escrow.sol\":1419:1430  escrowAgent */\n      0x02\n      0x00\n      swap1\n      sload\n      swap1\n      0x0100\n      exp\n      swap1\n      div\n      0xffffffffffffffffffffffffffffffffffffffff\n      and\n        /* \"contracts/Escrow.sol\":1405:1430  msg.sender == escrowAgent */\n      0xffffffffffffffffffffffffffffffffffffffff\n      and\n        /* \"contracts/Escrow.sol\":1405:1415  msg.sender */\n      caller\n        /* \"contracts/Escrow.sol\":1405:1430  msg.sender == escrowAgent */\n      0xffffffffffffffffffffffffffffffffffffffff\n      and\n      eq\n        /* \"contracts/Escrow.sol\":1397:1480  require(msg.sender == escrowAgent, \"Only the escrow agent can call this function.\") */\n      tag_38\n      jumpi\n      mload(0x40)\n      0x08c379a000000000000000000000000000000000000000000000000000000000\n      dup2\n      mstore\n      0x04\n      add\n      tag_39\n      swap1\n      tag_40\n      jump\t// in\n    tag_39:\n      mload(0x40)\n      dup1\n      swap2\n      sub\n      swap1\n      revert\n    tag_38:\n        /* \"contracts/Escrow.sol\":2529:2552  State.AWAITING_DELIVERY */\n      0x01\n        /* \"contracts/Escrow.sol\":1668:1681  expectedState */\n      dup1\n        /* \"contracts/Escrow.sol\":1652:1681  currentState == expectedState */\n      0x03\n      dup2\n      gt\n      iszero\n      tag_42\n      jumpi\n      tag_43\n      tag_44\n      jump\t// in\n    tag_43:\n    tag_42:\n        /* \"contracts/Escrow.sol\":1652:1664  currentState */\n      0x02\n      0x14\n      swap1\n      sload\n      swap1\n      0x0100\n      exp\n      swap1\n      div\n      0xff\n      and\n        /* \"contracts/Escrow.sol\":1652:1681  currentState == expectedState */\n      0x03\n      dup2\n      gt\n      iszero\n      tag_45\n      jumpi\n      tag_46\n      tag_44\n      jump\t// in\n    tag_46:\n    tag_45:\n      eq\n        /* \"contracts/Escrow.sol\":1644:1700  require(currentState == expectedState, \"Invalid state.\") */\n      tag_47\n      jumpi\n      mload(0x40)\n      0x08c379a000000000000000000000000000000000000000000000000000000000\n      dup2\n      mstore\n      0x04\n      add\n      tag_48\n      swap1\n      tag_49\n      jump\t// in\n    tag_48:\n      mload(0x40)\n      dup1\n      swap2\n      sub\n      swap1\n      revert\n    tag_47:\n        /* \"contracts/Escrow.sol\":2577:2591  State.REFUNDED */\n      0x03\n        /* \"contracts/Escrow.sol\":2562:2574  currentState */\n      0x02\n      0x14\n        /* \"contracts/Escrow.sol\":2562:2591  currentState = State.REFUNDED */\n      0x0100\n      exp\n      dup2\n      sload\n      dup2\n      0xff\n      mul\n      not\n      and\n      swap1\n      dup4\n      0x03\n      dup2\n      gt\n      iszero\n      tag_51\n      jumpi\n      tag_52\n      tag_44\n      jump\t// in\n    tag_52:\n    tag_51:\n      mul\n      or\n      swap1\n      sstore\n      pop\n        /* \"contracts/Escrow.sol\":2641:2646  buyer */\n      0x00\n      dup1\n      sload\n      swap1\n      0x0100\n      exp\n      swap1\n      div\n      0xffffffffffffffffffffffffffffffffffffffff\n      and\n        /* \"contracts/Escrow.sol\":2633:2656  payable(buyer).transfer */\n      0xffffffffffffffffffffffffffffffffffffffff\n      and\n        /* \"contracts/Escrow.sol\":2633:2679  payable(buyer).transfer(address(this).balance) */\n      0x08fc\n        /* \"contracts/Escrow.sol\":2657:2678  address(this).balance */\n      selfbalance\n        /* \"contracts/Escrow.sol\":2633:2679  payable(buyer).transfer(address(this).balance) */\n      swap1\n      dup2\n      iszero\n      mul\n      swap1\n      mload(0x40)\n      0x00\n      mload(0x40)\n      dup1\n      dup4\n      sub\n      dup2\n      dup6\n      dup9\n      dup9\n      call\n      swap4\n      pop\n      pop\n      pop\n      pop\n      iszero\n      dup1\n      iszero\n      tag_54\n      jumpi\n      returndatasize\n      0x00\n      dup1\n      returndatacopy\n      revert(0x00, returndatasize)\n    tag_54:\n      pop\n        /* \"contracts/Escrow.sol\":1488:1489  _ */\n      pop\n        /* \"contracts/Escrow.sol\":2478:2726  function refund() external onlyEscrowAgent inState(State.AWAITING_DELIVERY) {... */\n      jump\t// out\n        /* \"contracts/Escrow.sol\":2147:2393  function confirmDelivery() external onlyBuyer inState(State.AWAITING_DELIVERY) {... */\n    tag_25:\n        /* \"contracts/Escrow.sol\":1225:1230  buyer */\n      0x00\n      dup1\n      sload\n      swap1\n      0x0100\n      exp\n      swap1\n      div\n      0xffffffffffffffffffffffffffffffffffffffff\n      and\n        /* \"contracts/Escrow.sol\":1211:1230  msg.sender == buyer */\n      0xffffffffffffffffffffffffffffffffffffffff\n      and\n        /* \"contracts/Escrow.sol\":1211:1221  msg.sender */\n      caller\n        /* \"contracts/Escrow.sol\":1211:1230  msg.sender == buyer */\n      0xffffffffffffffffffffffffffffffffffffffff\n      and\n      eq\n        /* \"contracts/Escrow.sol\":1203:1273  require(msg.sender == buyer, \"Only the buyer can call this function.\") */\n      tag_56\n      jumpi\n      mload(0x40)\n      0x08c379a000000000000000000000000000000000000000000000000000000000\n      dup2\n      mstore\n      0x04\n      add\n      tag_57\n      swap1\n      tag_58\n      jump\t// in\n    tag_57:\n      mload(0x40)\n      dup1\n      swap2\n      sub\n      swap1\n      revert\n    tag_56:\n        /* \"contracts/Escrow.sol\":2201:2224  State.AWAITING_DELIVERY */\n      0x01\n        /* \"contracts/Escrow.sol\":1668:1681  expectedState */\n      dup1\n        /* \"contracts/Escrow.sol\":1652:1681  currentState == expectedState */\n      0x03\n      dup2\n      gt\n      iszero\n      tag_60\n      jumpi\n      tag_61\n      tag_44\n      jump\t// in\n    tag_61:\n    tag_60:\n        /* \"contracts/Escrow.sol\":1652:1664  currentState */\n      0x02\n      0x14\n      swap1\n      sload\n      swap1\n      0x0100\n      exp\n      swap1\n      div\n      0xff\n      and\n        /* \"contracts/Escrow.sol\":1652:1681  currentState == expectedState */\n      0x03\n      dup2\n      gt\n      iszero\n      tag_62\n      jumpi\n      tag_63\n      tag_44\n      jump\t// in\n    tag_63:\n    tag_62:\n      eq\n        /* \"contracts/Escrow.sol\":1644:1700  require(currentState == expectedState, \"Invalid state.\") */\n      tag_64\n      jumpi\n      mload(0x40)\n      0x08c379a000000000000000000000000000000000000000000000000000000000\n      dup2\n      mstore\n      0x04\n      add\n      tag_65\n      swap1\n      tag_49\n      jump\t// in\n    tag_65:\n      mload(0x40)\n      dup1\n      swap2\n      sub\n      swap1\n      revert\n    tag_64:\n        /* \"contracts/Escrow.sol\":2249:2263  State.COMPLETE */\n      0x02\n        /* \"contracts/Escrow.sol\":2234:2246  currentState */\n      dup1\n      0x14\n        /* \"contracts/Escrow.sol\":2234:2263  currentState = State.COMPLETE */\n      0x0100\n      exp\n      dup2\n      sload\n      dup2\n      0xff\n      mul\n      not\n      and\n      swap1\n      dup4\n      0x03\n      dup2\n      gt\n      iszero\n      tag_67\n      jumpi\n      tag_68\n      tag_44\n      jump\t// in\n    tag_68:\n    tag_67:\n      mul\n      or\n      swap1\n      sstore\n      pop\n        /* \"contracts/Escrow.sol\":2305:2311  seller */\n      0x01\n      0x00\n      swap1\n      sload\n      swap1\n      0x0100\n      exp\n      swap1\n      div\n      0xffffffffffffffffffffffffffffffffffffffff\n      and\n        /* \"contracts/Escrow.sol\":2305:2320  seller.transfer */\n      0xffffffffffffffffffffffffffffffffffffffff\n      and\n        /* \"contracts/Escrow.sol\":2305:2343  seller.transfer(address(this).balance) */\n      0x08fc\n        /* \"contracts/Escrow.sol\":2321:2342  address(this).balance */\n      selfbalance\n        /* \"contracts/Escrow.sol\":2305:2343  seller.transfer(address(this).balance) */\n      swap1\n      dup2\n      iszero\n      mul\n      swap1\n      mload(0x40)\n      0x00\n      mload(0x40)\n      dup1\n      dup4\n      sub\n      dup2\n      dup6\n      dup9\n      dup9\n      call\n      swap4\n      pop\n      pop\n      pop\n      pop\n      iszero\n      dup1\n      iszero\n      tag_70\n      jumpi\n      returndatasize\n      0x00\n      dup1\n      returndatacopy\n      revert(0x00, returndatasize)\n    tag_70:\n      pop\n        /* \"contracts/Escrow.sol\":1281:1282  _ */\n      pop\n        /* \"contracts/Escrow.sol\":2147:2393  function confirmDelivery() external onlyBuyer inState(State.AWAITING_DELIVERY) {... */\n      jump\t// out\n        /* \"contracts/Escrow.sol\":308:328  address public buyer */\n    tag_28:\n      0x00\n      dup1\n      sload\n      swap1\n      0x0100\n      exp\n      swap1\n      div\n      0xffffffffffffffffffffffffffffffffffffffff\n      and\n      dup2\n      jump\t// out\n        /* \"contracts/Escrow.sol\":1779:2063  function deposit() external payable onlyBuyer inState(State.AWAITING_PAYMENT) {... */\n    tag_32:\n        /* \"contracts/Escrow.sol\":1225:1230  buyer */\n      0x00\n      dup1\n      sload\n      swap1\n      0x0100\n      exp\n      swap1\n      div\n      0xffffffffffffffffffffffffffffffffffffffff\n      and\n        /* \"contracts/Escrow.sol\":1211:1230  msg.sender == buyer */\n      0xffffffffffffffffffffffffffffffffffffffff\n      and\n        /* \"contracts/Escrow.sol\":1211:1221  msg.sender */\n      caller\n        /* \"contracts/Escrow.sol\":1211:1230  msg.sender == buyer */\n      0xffffffffffffffffffffffffffffffffffffffff\n      and\n      eq\n        /* \"contracts/Escrow.sol\":1203:1273  require(msg.sender == buyer, \"Only the buyer can call this function.\") */\n      tag_72\n      jumpi\n      mload(0x40)\n      0x08c379a000000000000000000000000000000000000000000000000000000000\n      dup2\n      mstore\n      0x04\n      add\n      tag_73\n      swap1\n      tag_58\n      jump\t// in\n    tag_73:\n      mload(0x40)\n      dup1\n      swap2\n      sub\n      swap1\n      revert\n    tag_72:\n        /* \"contracts/Escrow.sol\":1833:1855  State.AWAITING_PAYMENT */\n      0x00\n        /* \"contracts/Escrow.sol\":1668:1681  expectedState */\n      dup1\n        /* \"contracts/Escrow.sol\":1652:1681  currentState == expectedState */\n      0x03\n      dup2\n      gt\n      iszero\n      tag_75\n      jumpi\n      tag_76\n      tag_44\n      jump\t// in\n    tag_76:\n    tag_75:\n        /* \"contracts/Escrow.sol\":1652:1664  currentState */\n      0x02\n      0x14\n      swap1\n      sload\n      swap1\n      0x0100\n      exp\n      swap1\n      div\n      0xff\n      and\n        /* \"contracts/Escrow.sol\":1652:1681  currentState == expectedState */\n      0x03\n      dup2\n      gt\n      iszero\n      tag_77\n      jumpi\n      tag_78\n      tag_44\n      jump\t// in\n    tag_78:\n    tag_77:\n      eq\n        /* \"contracts/Escrow.sol\":1644:1700  require(currentState == expectedState, \"Invalid state.\") */\n      tag_79\n      jumpi\n      mload(0x40)\n      0x08c379a000000000000000000000000000000000000000000000000000000000\n      dup2\n      mstore\n      0x04\n      add\n      tag_80\n      swap1\n      tag_49\n      jump\t// in\n    tag_80:\n      mload(0x40)\n      dup1\n      swap2\n      sub\n      swap1\n      revert\n    tag_79:\n        /* \"contracts/Escrow.sol\":1885:1886  0 */\n      0x00\n        /* \"contracts/Escrow.sol\":1873:1882  msg.value */\n      callvalue\n        /* \"contracts/Escrow.sol\":1873:1886  msg.value > 0 */\n      gt\n        /* \"contracts/Escrow.sol\":1865:1922  require(msg.value > 0, \"Deposit must be greater than 0.\") */\n      tag_82\n      jumpi\n      mload(0x40)\n      0x08c379a000000000000000000000000000000000000000000000000000000000\n      dup2\n      mstore\n      0x04\n      add\n      tag_83\n      swap1\n      tag_84\n      jump\t// in\n    tag_83:\n      mload(0x40)\n      dup1\n      swap2\n      sub\n      swap1\n      revert\n    tag_82:\n        /* \"contracts/Escrow.sol\":1992:2015  State.AWAITING_DELIVERY */\n      0x01\n        /* \"contracts/Escrow.sol\":1977:1989  currentState */\n      0x02\n      0x14\n        /* \"contracts/Escrow.sol\":1977:2015  currentState = State.AWAITING_DELIVERY */\n      0x0100\n      exp\n      dup2\n      sload\n      dup2\n      0xff\n      mul\n      not\n      and\n      swap1\n      dup4\n      0x03\n      dup2\n      gt\n      iszero\n      tag_85\n      jumpi\n      tag_86\n      tag_44\n      jump\t// in\n    tag_86:\n    tag_85:\n      mul\n      or\n      swap1\n      sstore\n      pop\n        /* \"contracts/Escrow.sol\":1281:1282  _ */\n      pop\n        /* \"contracts/Escrow.sol\":1779:2063  function deposit() external payable onlyBuyer inState(State.AWAITING_PAYMENT) {... */\n      jump\t// out\n        /* \"contracts/Escrow.sol\":529:555  address public escrowAgent */\n    tag_35:\n      0x02\n      0x00\n      swap1\n      sload\n      swap1\n      0x0100\n      exp\n      swap1\n      div\n      0xffffffffffffffffffffffffffffffffffffffff\n      and\n      dup2\n      jump\t// out\n        /* \"#utility.yul\":7:133   */\n    tag_87:\n        /* \"#utility.yul\":44:51   */\n      0x00\n        /* \"#utility.yul\":84:126   */\n      0xffffffffffffffffffffffffffffffffffffffff\n        /* \"#utility.yul\":77:82   */\n      dup3\n        /* \"#utility.yul\":73:127   */\n      and\n        /* \"#utility.yul\":62:127   */\n      swap1\n      pop\n        /* \"#utility.yul\":7:133   */\n      swap2\n      swap1\n      pop\n      jump\t// out\n        /* \"#utility.yul\":139:243   */\n    tag_88:\n        /* \"#utility.yul\":184:191   */\n      0x00\n        /* \"#utility.yul\":213:237   */\n      tag_108\n        /* \"#utility.yul\":231:236   */\n      dup3\n        /* \"#utility.yul\":213:237   */\n      tag_87\n      jump\t// in\n    tag_108:\n        /* \"#utility.yul\":202:237   */\n      swap1\n      pop\n        /* \"#utility.yul\":139:243   */\n      swap2\n      swap1\n      pop\n      jump\t// out\n        /* \"#utility.yul\":249:391   */\n    tag_89:\n        /* \"#utility.yul\":352:384   */\n      tag_110\n        /* \"#utility.yul\":378:383   */\n      dup2\n        /* \"#utility.yul\":352:384   */\n      tag_88\n      jump\t// in\n    tag_110:\n        /* \"#utility.yul\":347:350   */\n      dup3\n        /* \"#utility.yul\":340:385   */\n      mstore\n        /* \"#utility.yul\":249:391   */\n      pop\n      pop\n      jump\t// out\n        /* \"#utility.yul\":397:651   */\n    tag_14:\n        /* \"#utility.yul\":506:510   */\n      0x00\n        /* \"#utility.yul\":544:546   */\n      0x20\n        /* \"#utility.yul\":533:542   */\n      dup3\n        /* \"#utility.yul\":529:547   */\n      add\n        /* \"#utility.yul\":521:547   */\n      swap1\n      pop\n        /* \"#utility.yul\":557:644   */\n      tag_112\n        /* \"#utility.yul\":641:642   */\n      0x00\n        /* \"#utility.yul\":630:639   */\n      dup4\n        /* \"#utility.yul\":626:643   */\n      add\n        /* \"#utility.yul\":617:623   */\n      dup5\n        /* \"#utility.yul\":557:644   */\n      tag_89\n      jump\t// in\n    tag_112:\n        /* \"#utility.yul\":397:651   */\n      swap3\n      swap2\n      pop\n      pop\n      jump\t// out\n        /* \"#utility.yul\":657:837   */\n    tag_44:\n        /* \"#utility.yul\":705:782   */\n      0x4e487b7100000000000000000000000000000000000000000000000000000000\n        /* \"#utility.yul\":702:703   */\n      0x00\n        /* \"#utility.yul\":695:783   */\n      mstore\n        /* \"#utility.yul\":802:806   */\n      0x21\n        /* \"#utility.yul\":799:800   */\n      0x04\n        /* \"#utility.yul\":792:807   */\n      mstore\n        /* \"#utility.yul\":826:830   */\n      0x24\n        /* \"#utility.yul\":823:824   */\n      0x00\n        /* \"#utility.yul\":816:831   */\n      revert\n        /* \"#utility.yul\":843:955   */\n    tag_90:\n        /* \"#utility.yul\":923:924   */\n      0x04\n        /* \"#utility.yul\":916:921   */\n      dup2\n        /* \"#utility.yul\":913:925   */\n      lt\n        /* \"#utility.yul\":903:949   */\n      tag_115\n      jumpi\n        /* \"#utility.yul\":929:947   */\n      tag_116\n      tag_44\n      jump\t// in\n    tag_116:\n        /* \"#utility.yul\":903:949   */\n    tag_115:\n        /* \"#utility.yul\":843:955   */\n      pop\n      jump\t// out\n        /* \"#utility.yul\":961:1086   */\n    tag_91:\n        /* \"#utility.yul\":1005:1012   */\n      0x00\n        /* \"#utility.yul\":1034:1039   */\n      dup2\n        /* \"#utility.yul\":1023:1039   */\n      swap1\n      pop\n        /* \"#utility.yul\":1040:1080   */\n      tag_118\n        /* \"#utility.yul\":1074:1079   */\n      dup3\n        /* \"#utility.yul\":1040:1080   */\n      tag_90\n      jump\t// in\n    tag_118:\n        /* \"#utility.yul\":961:1086   */\n      swap2\n      swap1\n      pop\n      jump\t// out\n        /* \"#utility.yul\":1092:1217   */\n    tag_92:\n        /* \"#utility.yul\":1147:1156   */\n      0x00\n        /* \"#utility.yul\":1180:1211   */\n      tag_120\n        /* \"#utility.yul\":1205:1210   */\n      dup3\n        /* \"#utility.yul\":1180:1211   */\n      tag_91\n      jump\t// in\n    tag_120:\n        /* \"#utility.yul\":1167:1211   */\n      swap1\n      pop\n        /* \"#utility.yul\":1092:1217   */\n      swap2\n      swap1\n      pop\n      jump\t// out\n        /* \"#utility.yul\":1223:1364   */\n    tag_93:\n        /* \"#utility.yul\":1315:1357   */\n      tag_122\n        /* \"#utility.yul\":1351:1356   */\n      dup2\n        /* \"#utility.yul\":1315:1357   */\n      tag_92\n      jump\t// in\n    tag_122:\n        /* \"#utility.yul\":1310:1313   */\n      dup3\n        /* \"#utility.yul\":1303:1358   */\n      mstore\n        /* \"#utility.yul\":1223:1364   */\n      pop\n      pop\n      jump\t// out\n        /* \"#utility.yul\":1370:1602   */\n    tag_19:\n        /* \"#utility.yul\":1468:1472   */\n      0x00\n        /* \"#utility.yul\":1506:1508   */\n      0x20\n        /* \"#utility.yul\":1495:1504   */\n      dup3\n        /* \"#utility.yul\":1491:1509   */\n      add\n        /* \"#utility.yul\":1483:1509   */\n      swap1\n      pop\n        /* \"#utility.yul\":1519:1595   */\n      tag_124\n        /* \"#utility.yul\":1592:1593   */\n      0x00\n        /* \"#utility.yul\":1581:1590   */\n      dup4\n        /* \"#utility.yul\":1577:1594   */\n      add\n        /* \"#utility.yul\":1568:1574   */\n      dup5\n        /* \"#utility.yul\":1519:1595   */\n      tag_93\n      jump\t// in\n    tag_124:\n        /* \"#utility.yul\":1370:1602   */\n      swap3\n      swap2\n      pop\n      pop\n      jump\t// out\n        /* \"#utility.yul\":1608:1704   */\n    tag_94:\n        /* \"#utility.yul\":1645:1652   */\n      0x00\n        /* \"#utility.yul\":1674:1698   */\n      tag_126\n        /* \"#utility.yul\":1692:1697   */\n      dup3\n        /* \"#utility.yul\":1674:1698   */\n      tag_87\n      jump\t// in\n    tag_126:\n        /* \"#utility.yul\":1663:1698   */\n      swap1\n      pop\n        /* \"#utility.yul\":1608:1704   */\n      swap2\n      swap1\n      pop\n      jump\t// out\n        /* \"#utility.yul\":1710:1828   */\n    tag_95:\n        /* \"#utility.yul\":1797:1821   */\n      tag_128\n        /* \"#utility.yul\":1815:1820   */\n      dup2\n        /* \"#utility.yul\":1797:1821   */\n      tag_94\n      jump\t// in\n    tag_128:\n        /* \"#utility.yul\":1792:1795   */\n      dup3\n        /* \"#utility.yul\":1785:1822   */\n      mstore\n        /* \"#utility.yul\":1710:1828   */\n      pop\n      pop\n      jump\t// out\n        /* \"#utility.yul\":1834:2056   */\n    tag_30:\n        /* \"#utility.yul\":1927:1931   */\n      0x00\n        /* \"#utility.yul\":1965:1967   */\n      0x20\n        /* \"#utility.yul\":1954:1963   */\n      dup3\n        /* \"#utility.yul\":1950:1968   */\n      add\n        /* \"#utility.yul\":1942:1968   */\n      swap1\n      pop\n        /* \"#utility.yul\":1978:2049   */\n      tag_130\n        /* \"#utility.yul\":2046:2047   */\n      0x00\n        /* \"#utility.yul\":2035:2044   */\n      dup4\n        /* \"#utility.yul\":2031:2048   */\n      add\n        /* \"#utility.yul\":2022:2028   */\n      dup5\n        /* \"#utility.yul\":1978:2049   */\n      tag_95\n      jump\t// in\n    tag_130:\n        /* \"#utility.yul\":1834:2056   */\n      swap3\n      swap2\n      pop\n      pop\n      jump\t// out\n        /* \"#utility.yul\":2062:2231   */\n    tag_96:\n        /* \"#utility.yul\":2146:2157   */\n      0x00\n        /* \"#utility.yul\":2180:2186   */\n      dup3\n        /* \"#utility.yul\":2175:2178   */\n      dup3\n        /* \"#utility.yul\":2168:2187   */\n      mstore\n        /* \"#utility.yul\":2220:2224   */\n      0x20\n        /* \"#utility.yul\":2215:2218   */\n      dup3\n        /* \"#utility.yul\":2211:2225   */\n      add\n        /* \"#utility.yul\":2196:2225   */\n      swap1\n      pop\n        /* \"#utility.yul\":2062:2231   */\n      swap3\n      swap2\n      pop\n      pop\n      jump\t// out\n        /* \"#utility.yul\":2237:2469   */\n    tag_97:\n        /* \"#utility.yul\":2377:2411   */\n      0x4f6e6c792074686520657363726f77206167656e742063616e2063616c6c2074\n        /* \"#utility.yul\":2373:2374   */\n      0x00\n        /* \"#utility.yul\":2365:2371   */\n      dup3\n        /* \"#utility.yul\":2361:2375   */\n      add\n        /* \"#utility.yul\":2354:2412   */\n      mstore\n        /* \"#utility.yul\":2446:2461   */\n      0x6869732066756e6374696f6e2e00000000000000000000000000000000000000\n        /* \"#utility.yul\":2441:2443   */\n      0x20\n        /* \"#utility.yul\":2433:2439   */\n      dup3\n        /* \"#utility.yul\":2429:2444   */\n      add\n        /* \"#utility.yul\":2422:2462   */\n      mstore\n        /* \"#utility.yul\":2237:2469   */\n      pop\n      jump\t// out\n        /* \"#utility.yul\":2475:2841   */\n    tag_98:\n        /* \"#utility.yul\":2617:2620   */\n      0x00\n        /* \"#utility.yul\":2638:2705   */\n      tag_134\n        /* \"#utility.yul\":2702:2704   */\n      0x2d\n        /* \"#utility.yul\":2697:2700   */\n      dup4\n        /* \"#utility.yul\":2638:2705   */\n      tag_96\n      jump\t// in\n    tag_134:\n        /* \"#utility.yul\":2631:2705   */\n      swap2\n      pop\n        /* \"#utility.yul\":2714:2807   */\n      tag_135\n        /* \"#utility.yul\":2803:2806   */\n      dup3\n        /* \"#utility.yul\":2714:2807   */\n      tag_97\n      jump\t// in\n    tag_135:\n        /* \"#utility.yul\":2832:2834   */\n      0x40\n        /* \"#utility.yul\":2827:2830   */\n      dup3\n        /* \"#utility.yul\":2823:2835   */\n      add\n        /* \"#utility.yul\":2816:2835   */\n      swap1\n      pop\n        /* \"#utility.yul\":2475:2841   */\n      swap2\n      swap1\n      pop\n      jump\t// out\n        /* \"#utility.yul\":2847:3266   */\n    tag_40:\n        /* \"#utility.yul\":3013:3017   */\n      0x00\n        /* \"#utility.yul\":3051:3053   */\n      0x20\n        /* \"#utility.yul\":3040:3049   */\n      dup3\n        /* \"#utility.yul\":3036:3054   */\n      add\n        /* \"#utility.yul\":3028:3054   */\n      swap1\n      pop\n        /* \"#utility.yul\":3100:3109   */\n      dup2\n        /* \"#utility.yul\":3094:3098   */\n      dup2\n        /* \"#utility.yul\":3090:3110   */\n      sub\n        /* \"#utility.yul\":3086:3087   */\n      0x00\n        /* \"#utility.yul\":3075:3084   */\n      dup4\n        /* \"#utility.yul\":3071:3088   */\n      add\n        /* \"#utility.yul\":3064:3111   */\n      mstore\n        /* \"#utility.yul\":3128:3259   */\n      tag_137\n        /* \"#utility.yul\":3254:3258   */\n      dup2\n        /* \"#utility.yul\":3128:3259   */\n      tag_98\n      jump\t// in\n    tag_137:\n        /* \"#utility.yul\":3120:3259   */\n      swap1\n      pop\n        /* \"#utility.yul\":2847:3266   */\n      swap2\n      swap1\n      pop\n      jump\t// out\n        /* \"#utility.yul\":3272:3436   */\n    tag_99:\n        /* \"#utility.yul\":3412:3428   */\n      0x496e76616c69642073746174652e000000000000000000000000000000000000\n        /* \"#utility.yul\":3408:3409   */\n      0x00\n        /* \"#utility.yul\":3400:3406   */\n      dup3\n        /* \"#utility.yul\":3396:3410   */\n      add\n        /* \"#utility.yul\":3389:3429   */\n      mstore\n        /* \"#utility.yul\":3272:3436   */\n      pop\n      jump\t// out\n        /* \"#utility.yul\":3442:3808   */\n    tag_100:\n        /* \"#utility.yul\":3584:3587   */\n      0x00\n        /* \"#utility.yul\":3605:3672   */\n      tag_140\n        /* \"#utility.yul\":3669:3671   */\n      0x0e\n        /* \"#utility.yul\":3664:3667   */\n      dup4\n        /* \"#utility.yul\":3605:3672   */\n      tag_96\n      jump\t// in\n    tag_140:\n        /* \"#utility.yul\":3598:3672   */\n      swap2\n      pop\n        /* \"#utility.yul\":3681:3774   */\n      tag_141\n        /* \"#utility.yul\":3770:3773   */\n      dup3\n        /* \"#utility.yul\":3681:3774   */\n      tag_99\n      jump\t// in\n    tag_141:\n        /* \"#utility.yul\":3799:3801   */\n      0x20\n        /* \"#utility.yul\":3794:3797   */\n      dup3\n        /* \"#utility.yul\":3790:3802   */\n      add\n        /* \"#utility.yul\":3783:3802   */\n      swap1\n      pop\n        /* \"#utility.yul\":3442:3808   */\n      swap2\n      swap1\n      pop\n      jump\t// out\n        /* \"#utility.yul\":3814:4233   */\n    tag_49:\n        /* \"#utility.yul\":3980:3984   */\n      0x00\n        /* \"#utility.yul\":4018:4020   */\n      0x20\n        /* \"#utility.yul\":4007:4016   */\n      dup3\n        /* \"#utility.yul\":4003:4021   */\n      add\n        /* \"#utility.yul\":3995:4021   */\n      swap1\n      pop\n        /* \"#utility.yul\":4067:4076   */\n      dup2\n        /* \"#utility.yul\":4061:4065   */\n      dup2\n        /* \"#utility.yul\":4057:4077   */\n      sub\n        /* \"#utility.yul\":4053:4054   */\n      0x00\n        /* \"#utility.yul\":4042:4051   */\n      dup4\n        /* \"#utility.yul\":4038:4055   */\n      add\n        /* \"#utility.yul\":4031:4078   */\n      mstore\n        /* \"#utility.yul\":4095:4226   */\n      tag_143\n        /* \"#utility.yul\":4221:4225   */\n      dup2\n        /* \"#utility.yul\":4095:4226   */\n      tag_100\n      jump\t// in\n    tag_143:\n        /* \"#utility.yul\":4087:4226   */\n      swap1\n      pop\n        /* \"#utility.yul\":3814:4233   */\n      swap2\n      swap1\n      pop\n      jump\t// out\n        /* \"#utility.yul\":4239:4464   */\n    tag_101:\n        /* \"#utility.yul\":4379:4413   */\n      0x4f6e6c79207468652062757965722063616e2063616c6c20746869732066756e\n        /* \"#utility.yul\":4375:4376   */\n      0x00\n        /* \"#utility.yul\":4367:4373   */\n      dup3\n        /* \"#utility.yul\":4363:4377   */\n      add\n        /* \"#utility.yul\":4356:4414   */\n      mstore\n        /* \"#utility.yul\":4448:4456   */\n      0x6374696f6e2e0000000000000000000000000000000000000000000000000000\n        /* \"#utility.yul\":4443:4445   */\n      0x20\n        /* \"#utility.yul\":4435:4441   */\n      dup3\n        /* \"#utility.yul\":4431:4446   */\n      add\n        /* \"#utility.yul\":4424:4457   */\n      mstore\n        /* \"#utility.yul\":4239:4464   */\n      pop\n      jump\t// out\n        /* \"#utility.yul\":4470:4836   */\n    tag_102:\n        /* \"#utility.yul\":4612:4615   */\n      0x00\n        /* \"#utility.yul\":4633:4700   */\n      tag_146\n        /* \"#utility.yul\":4697:4699   */\n      0x26\n        /* \"#utility.yul\":4692:4695   */\n      dup4\n        /* \"#utility.yul\":4633:4700   */\n      tag_96\n      jump\t// in\n    tag_146:\n        /* \"#utility.yul\":4626:4700   */\n      swap2\n      pop\n        /* \"#utility.yul\":4709:4802   */\n      tag_147\n        /* \"#utility.yul\":4798:4801   */\n      dup3\n        /* \"#utility.yul\":4709:4802   */\n      tag_101\n      jump\t// in\n    tag_147:\n        /* \"#utility.yul\":4827:4829   */\n      0x40\n        /* \"#utility.yul\":4822:4825   */\n      dup3\n        /* \"#utility.yul\":4818:4830   */\n      add\n        /* \"#utility.yul\":4811:4830   */\n      swap1\n      pop\n        /* \"#utility.yul\":4470:4836   */\n      swap2\n      swap1\n      pop\n      jump\t// out\n        /* \"#utility.yul\":4842:5261   */\n    tag_58:\n        /* \"#utility.yul\":5008:5012   */\n      0x00\n        /* \"#utility.yul\":5046:5048   */\n      0x20\n        /* \"#utility.yul\":5035:5044   */\n      dup3\n        /* \"#utility.yul\":5031:5049   */\n      add\n        /* \"#utility.yul\":5023:5049   */\n      swap1\n      pop\n        /* \"#utility.yul\":5095:5104   */\n      dup2\n        /* \"#utility.yul\":5089:5093   */\n      dup2\n        /* \"#utility.yul\":5085:5105   */\n      sub\n        /* \"#utility.yul\":5081:5082   */\n      0x00\n        /* \"#utility.yul\":5070:5079   */\n      dup4\n        /* \"#utility.yul\":5066:5083   */\n      add\n        /* \"#utility.yul\":5059:5106   */\n      mstore\n        /* \"#utility.yul\":5123:5254   */\n      tag_149\n        /* \"#utility.yul\":5249:5253   */\n      dup2\n        /* \"#utility.yul\":5123:5254   */\n      tag_102\n      jump\t// in\n    tag_149:\n        /* \"#utility.yul\":5115:5254   */\n      swap1\n      pop\n        /* \"#utility.yul\":4842:5261   */\n      swap2\n      swap1\n      pop\n      jump\t// out\n        /* \"#utility.yul\":5267:5448   */\n    tag_103:\n        /* \"#utility.yul\":5407:5440   */\n      0x4465706f736974206d7573742062652067726561746572207468616e20302e00\n        /* \"#utility.yul\":5403:5404   */\n      0x00\n        /* \"#utility.yul\":5395:5401   */\n      dup3\n        /* \"#utility.yul\":5391:5405   */\n      add\n        /* \"#utility.yul\":5384:5441   */\n      mstore\n        /* \"#utility.yul\":5267:5448   */\n      pop\n      jump\t// out\n        /* \"#utility.yul\":5454:5820   */\n    tag_104:\n        /* \"#utility.yul\":5596:5599   */\n      0x00\n        /* \"#utility.yul\":5617:5684   */\n      tag_152\n        /* \"#utility.yul\":5681:5683   */\n      0x1f\n        /* \"#utility.yul\":5676:5679   */\n      dup4\n        /* \"#utility.yul\":5617:5684   */\n      tag_96\n      jump\t// in\n    tag_152:\n        /* \"#utility.yul\":5610:5684   */\n      swap2\n      pop\n        /* \"#utility.yul\":5693:5786   */\n      tag_153\n        /* \"#utility.yul\":5782:5785   */\n      dup3\n        /* \"#utility.yul\":5693:5786   */\n      tag_103\n      jump\t// in\n    tag_153:\n        /* \"#utility.yul\":5811:5813   */\n      0x20\n        /* \"#utility.yul\":5806:5809   */\n      dup3\n        /* \"#utility.yul\":5802:5814   */\n      add\n        /* \"#utility.yul\":5795:5814   */\n      swap1\n      pop\n        /* \"#utility.yul\":5454:5820   */\n      swap2\n      swap1\n      pop\n      jump\t// out\n        /* \"#utility.yul\":5826:6245   */\n    tag_84:\n        /* \"#utility.yul\":5992:5996   */\n      0x00\n        /* \"#utility.yul\":6030:6032   */\n      0x20\n        /* \"#utility.yul\":6019:6028   */\n      dup3\n        /* \"#utility.yul\":6015:6033   */\n      add\n        /* \"#utility.yul\":6007:6033   */\n      swap1\n      pop\n        /* \"#utility.yul\":6079:6088   */\n      dup2\n        /* \"#utility.yul\":6073:6077   */\n      dup2\n        /* \"#utility.yul\":6069:6089   */\n      sub\n        /* \"#utility.yul\":6065:6066   */\n      0x00\n        /* \"#utility.yul\":6054:6063   */\n      dup4\n        /* \"#utility.yul\":6050:6067   */\n      add\n        /* \"#utility.yul\":6043:6090   */\n      mstore\n        /* \"#utility.yul\":6107:6238   */\n      tag_155\n        /* \"#utility.yul\":6233:6237   */\n      dup2\n        /* \"#utility.yul\":6107:6238   */\n      tag_104\n      jump\t// in\n    tag_155:\n        /* \"#utility.yul\":6099:6238   */\n      swap1\n      pop\n        /* \"#utility.yul\":5826:6245   */\n      swap2\n      swap1\n      pop\n      jump\t// out\n\n    auxdata: 0xa26469706673582212204e0bc58bf6a3063aee707bd6e38f6b9b5944123442ab05772df009efb893458464736f6c63430008160033\n}\n",
				"bytecode": {
					"linkReferences": {},
					"object": "60806040523480156200001157600080fd5b5060405162000c5a38038062000c5a8339818101604052810190620000379190620001de565b816000806101000a81548173ffffffffffffffffffffffffffffffffffffffff021916908373ffffffffffffffffffffffffffffffffffffffff16021790555080600160006101000a81548173ffffffffffffffffffffffffffffffffffffffff021916908373ffffffffffffffffffffffffffffffffffffffff16021790555033600260006101000a81548173ffffffffffffffffffffffffffffffffffffffff021916908373ffffffffffffffffffffffffffffffffffffffff1602179055506000600260146101000a81548160ff0219169083600381111562000122576200012162000225565b5b0217905550505062000254565b600080fd5b600073ffffffffffffffffffffffffffffffffffffffff82169050919050565b6000620001618262000134565b9050919050565b620001738162000154565b81146200017f57600080fd5b50565b600081519050620001938162000168565b92915050565b6000620001a68262000134565b9050919050565b620001b88162000199565b8114620001c457600080fd5b50565b600081519050620001d881620001ad565b92915050565b60008060408385031215620001f857620001f76200012f565b5b6000620002088582860162000182565b92505060206200021b85828601620001c7565b9150509250929050565b7f4e487b7100000000000000000000000000000000000000000000000000000000600052602160045260246000fd5b6109f680620002646000396000f3fe6080604052600436106100705760003560e01c80635e10177b1161004e5780635e10177b146100e25780637150d8ae146100f9578063d0e30db014610124578063e1f6c0981461012e57610070565b806308551a53146100755780630c3f6acf146100a0578063590e1ae3146100cb575b600080fd5b34801561008157600080fd5b5061008a610159565b60405161009791906106ca565b60405180910390f35b3480156100ac57600080fd5b506100b561017f565b6040516100c2919061075c565b60405180910390f35b3480156100d757600080fd5b506100e0610192565b005b3480156100ee57600080fd5b506100f761032e565b005b34801561010557600080fd5b5061010e6104c9565b60405161011b9190610798565b60405180910390f35b61012c6104ed565b005b34801561013a57600080fd5b50610143610663565b6040516101509190610798565b60405180910390f35b600160009054906101000a900473ffffffffffffffffffffffffffffffffffffffff1681565b600260149054906101000a900460ff1681565b600260009054906101000a900473ffffffffffffffffffffffffffffffffffffffff1673ffffffffffffffffffffffffffffffffffffffff163373ffffffffffffffffffffffffffffffffffffffff1614610222576040517f08c379a000000000000000000000000000000000000000000000000000000000815260040161021990610836565b60405180910390fd5b6001806003811115610237576102366106e5565b5b600260149054906101000a900460ff166003811115610259576102586106e5565b5b14610299576040517f08c379a0000000000000000000000000000000000000000000000000000000008152600401610290906108a2565b60405180910390fd5b6003600260146101000a81548160ff021916908360038111156102bf576102be6106e5565b5b021790555060008054906101000a900473ffffffffffffffffffffffffffffffffffffffff1673ffffffffffffffffffffffffffffffffffffffff166108fc479081150290604051600060405180830381858888f1935050505015801561032a573d6000803e3d6000fd5b5050565b60008054906101000a900473ffffffffffffffffffffffffffffffffffffffff1673ffffffffffffffffffffffffffffffffffffffff163373ffffffffffffffffffffffffffffffffffffffff16146103bc576040517f08c379a00000000000000000000000000000000000000000000000000000000081526004016103b390610934565b60405180910390fd5b60018060038111156103d1576103d06106e5565b5b600260149054906101000a900460ff1660038111156103f3576103f26106e5565b5b14610433576040517f08c379a000000000000000000000000000000000000000000000000000000000815260040161042a906108a2565b60405180910390fd5b60028060146101000a81548160ff02191690836003811115610458576104576106e5565b5b0217905550600160009054906101000a900473ffffffffffffffffffffffffffffffffffffffff1673ffffffffffffffffffffffffffffffffffffffff166108fc479081150290604051600060405180830381858888f193505050501580156104c5573d6000803e3d6000fd5b5050565b60008054906101000a900473ffffffffffffffffffffffffffffffffffffffff1681565b60008054906101000a900473ffffffffffffffffffffffffffffffffffffffff1673ffffffffffffffffffffffffffffffffffffffff163373ffffffffffffffffffffffffffffffffffffffff161461057b576040517f08c379a000000000000000000000000000000000000000000000000000000000815260040161057290610934565b60405180910390fd5b60008060038111156105905761058f6106e5565b5b600260149054906101000a900460ff1660038111156105b2576105b16106e5565b5b146105f2576040517f08c379a00000000000000000000000000000000000000000000000000000000081526004016105e9906108a2565b60405180910390fd5b60003411610635576040517f08c379a000000000000000000000000000000000000000000000000000000000815260040161062c906109a0565b60405180910390fd5b6001600260146101000a81548160ff0219169083600381111561065b5761065a6106e5565b5b021790555050565b600260009054906101000a900473ffffffffffffffffffffffffffffffffffffffff1681565b600073ffffffffffffffffffffffffffffffffffffffff82169050919050565b60006106b482610689565b9050919050565b6106c4816106a9565b82525050565b60006020820190506106df60008301846106bb565b92915050565b7f4e487b7100000000000000000000000000000000000000000000000000000000600052602160045260246000fd5b60048110610725576107246106e5565b5b50565b600081905061073682610714565b919050565b600061074682610728565b9050919050565b6107568161073b565b82525050565b6000602082019050610771600083018461074d565b92915050565b600061078282610689565b9050919050565b61079281610777565b82525050565b60006020820190506107ad6000830184610789565b92915050565b600082825260208201905092915050565b7f4f6e6c792074686520657363726f77206167656e742063616e2063616c6c207460008201527f6869732066756e6374696f6e2e00000000000000000000000000000000000000602082015250565b6000610820602d836107b3565b915061082b826107c4565b604082019050919050565b6000602082019050818103600083015261084f81610813565b9050919050565b7f496e76616c69642073746174652e000000000000000000000000000000000000600082015250565b600061088c600e836107b3565b915061089782610856565b602082019050919050565b600060208201905081810360008301526108bb8161087f565b9050919050565b7f4f6e6c79207468652062757965722063616e2063616c6c20746869732066756e60008201527f6374696f6e2e0000000000000000000000000000000000000000000000000000602082015250565b600061091e6026836107b3565b9150610929826108c2565b604082019050919050565b6000602082019050818103600083015261094d81610911565b9050919050565b7f4465706f736974206d7573742062652067726561746572207468616e20302e00600082015250565b600061098a601f836107b3565b915061099582610954565b602082019050919050565b600060208201905081810360008301526109b98161097d565b905091905056fea26469706673582212204e0bc58bf6a3063aee707bd6e38f6b9b5944123442ab05772df009efb893458464736f6c63430008160033",
					"opcodes": "PUSH1 0x80 PUSH1 0x40 MSTORE CALLVALUE DUP1 ISZERO PUSH3 0x11 JUMPI PUSH1 0x0 DUP1 REVERT JUMPDEST POP PUSH1 0x40 MLOAD PUSH3 0xC5A CODESIZE SUB DUP1 PUSH3 0xC5A DUP4 CODECOPY DUP2 DUP2 ADD PUSH1 0x40 MSTORE DUP2 ADD SWAP1 PUSH3 0x37 SWAP2 SWAP1 PUSH3 0x1DE JUMP JUMPDEST DUP2 PUSH1 0x0 DUP1 PUSH2 0x100 EXP DUP2 SLOAD DUP2 PUSH20 0xFFFFFFFFFFFFFFFFFFFFFFFFFFFFFFFFFFFFFFFF MUL NOT AND SWAP1 DUP4 PUSH20 0xFFFFFFFFFFFFFFFFFFFFFFFFFFFFFFFFFFFFFFFF AND MUL OR SWAP1 SSTORE POP DUP1 PUSH1 0x1 PUSH1 0x0 PUSH2 0x100 EXP DUP2 SLOAD DUP2 PUSH20 0xFFFFFFFFFFFFFFFFFFFFFFFFFFFFFFFFFFFFFFFF MUL NOT AND SWAP1 DUP4 PUSH20 0xFFFFFFFFFFFFFFFFFFFFFFFFFFFFFFFFFFFFFFFF AND MUL OR SWAP1 SSTORE POP CALLER PUSH1 0x2 PUSH1 0x0 PUSH2 0x100 EXP DUP2 SLOAD DUP2 PUSH20 0xFFFFFFFFFFFFFFFFFFFFFFFFFFFFFFFFFFFFFFFF MUL NOT AND SWAP1 DUP4 PUSH20 0xFFFFFFFFFFFFFFFFFFFFFFFFFFFFFFFFFFFFFFFF AND MUL OR SWAP1 SSTORE POP PUSH1 0x0 PUSH1 0x2 PUSH1 0x14 PUSH2 0x100 EXP DUP2 SLOAD DUP2 PUSH1 0xFF MUL NOT AND SWAP1 DUP4 PUSH1 0x3 DUP2 GT ISZERO PUSH3 0x122 JUMPI PUSH3 0x121 PUSH3 0x225 JUMP JUMPDEST JUMPDEST MUL OR SWAP1 SSTORE POP POP POP PUSH3 0x254 JUMP JUMPDEST PUSH1 0x0 DUP1 REVERT JUMPDEST PUSH1 0x0 PUSH20 0xFFFFFFFFFFFFFFFFFFFFFFFFFFFFFFFFFFFFFFFF DUP3 AND SWAP1 POP SWAP2 SWAP1 POP JUMP JUMPDEST PUSH1 0x0 PUSH3 0x161 DUP3 PUSH3 0x134 JUMP JUMPDEST SWAP1 POP SWAP2 SWAP1 POP JUMP JUMPDEST PUSH3 0x173 DUP2 PUSH3 0x154 JUMP JUMPDEST DUP2 EQ PUSH3 0x17F JUMPI PUSH1 0x0 DUP1 REVERT JUMPDEST POP JUMP JUMPDEST PUSH1 0x0 DUP2 MLOAD SWAP1 POP PUSH3 0x193 DUP2 PUSH3 0x168 JUMP JUMPDEST SWAP3 SWAP2 POP POP JUMP JUMPDEST PUSH1 0x0 PUSH3 0x1A6 DUP3 PUSH3 0x134 JUMP JUMPDEST SWAP1 POP SWAP2 SWAP1 POP JUMP JUMPDEST PUSH3 0x1B8 DUP2 PUSH3 0x199 JUMP JUMPDEST DUP2 EQ PUSH3 0x1C4 JUMPI PUSH1 0x0 DUP1 REVERT JUMPDEST POP JUMP JUMPDEST PUSH1 0x0 DUP2 MLOAD SWAP1 POP PUSH3 0x1D8 DUP2 PUSH3 0x1AD JUMP JUMPDEST SWAP3 SWAP2 POP POP JUMP JUMPDEST PUSH1 0x0 DUP1 PUSH1 0x40 DUP4 DUP6 SUB SLT ISZERO PUSH3 0x1F8 JUMPI PUSH3 0x1F7 PUSH3 0x12F JUMP JUMPDEST JUMPDEST PUSH1 0x0 PUSH3 0x208 DUP6 DUP3 DUP7 ADD PUSH3 0x182 JUMP JUMPDEST SWAP3 POP POP PUSH1 0x20 PUSH3 0x21B DUP6 DUP3 DUP7 ADD PUSH3 0x1C7 JUMP JUMPDEST SWAP2 POP POP SWAP3 POP SWAP3 SWAP1 POP JUMP JUMPDEST PUSH32 0x4E487B7100000000000000000000000000000000000000000000000000000000 PUSH1 0x0 MSTORE PUSH1 0x21 PUSH1 0x4 MSTORE PUSH1 0x24 PUSH1 0x0 REVERT JUMPDEST PUSH2 0x9F6 DUP1 PUSH3 0x264 PUSH1 0x0 CODECOPY PUSH1 0x0 RETURN INVALID PUSH1 0x80 PUSH1 0x40 MSTORE PUSH1 0x4 CALLDATASIZE LT PUSH2 0x70 JUMPI PUSH1 0x0 CALLDATALOAD PUSH1 0xE0 SHR DUP1 PUSH4 0x5E10177B GT PUSH2 0x4E JUMPI DUP1 PUSH4 0x5E10177B EQ PUSH2 0xE2 JUMPI DUP1 PUSH4 0x7150D8AE EQ PUSH2 0xF9 JUMPI DUP1 PUSH4 0xD0E30DB0 EQ PUSH2 0x124 JUMPI DUP1 PUSH4 0xE1F6C098 EQ PUSH2 0x12E JUMPI PUSH2 0x70 JUMP JUMPDEST DUP1 PUSH4 0x8551A53 EQ PUSH2 0x75 JUMPI DUP1 PUSH4 0xC3F6ACF EQ PUSH2 0xA0 JUMPI DUP1 PUSH4 0x590E1AE3 EQ PUSH2 0xCB JUMPI JUMPDEST PUSH1 0x0 DUP1 REVERT JUMPDEST CALLVALUE DUP1 ISZERO PUSH2 0x81 JUMPI PUSH1 0x0 DUP1 REVERT JUMPDEST POP PUSH2 0x8A PUSH2 0x159 JUMP JUMPDEST PUSH1 0x40 MLOAD PUSH2 0x97 SWAP2 SWAP1 PUSH2 0x6CA JUMP JUMPDEST PUSH1 0x40 MLOAD DUP1 SWAP2 SUB SWAP1 RETURN JUMPDEST CALLVALUE DUP1 ISZERO PUSH2 0xAC JUMPI PUSH1 0x0 DUP1 REVERT JUMPDEST POP PUSH2 0xB5 PUSH2 0x17F JUMP JUMPDEST PUSH1 0x40 MLOAD PUSH2 0xC2 SWAP2 SWAP1 PUSH2 0x75C JUMP JUMPDEST PUSH1 0x40 MLOAD DUP1 SWAP2 SUB SWAP1 RETURN JUMPDEST CALLVALUE DUP1 ISZERO PUSH2 0xD7 JUMPI PUSH1 0x0 DUP1 REVERT JUMPDEST POP PUSH2 0xE0 PUSH2 0x192 JUMP JUMPDEST STOP JUMPDEST CALLVALUE DUP1 ISZERO PUSH2 0xEE JUMPI PUSH1 0x0 DUP1 REVERT JUMPDEST POP PUSH2 0xF7 PUSH2 0x32E JUMP JUMPDEST STOP JUMPDEST CALLVALUE DUP1 ISZERO PUSH2 0x105 JUMPI PUSH1 0x0 DUP1 REVERT JUMPDEST POP PUSH2 0x10E PUSH2 0x4C9 JUMP JUMPDEST PUSH1 0x40 MLOAD PUSH2 0x11B SWAP2 SWAP1 PUSH2 0x798 JUMP JUMPDEST PUSH1 0x40 MLOAD DUP1 SWAP2 SUB SWAP1 RETURN JUMPDEST PUSH2 0x12C PUSH2 0x4ED JUMP JUMPDEST STOP JUMPDEST CALLVALUE DUP1 ISZERO PUSH2 0x13A JUMPI PUSH1 0x0 DUP1 REVERT JUMPDEST POP PUSH2 0x143 PUSH2 0x663 JUMP JUMPDEST PUSH1 0x40 MLOAD PUSH2 0x150 SWAP2 SWAP1 PUSH2 0x798 JUMP JUMPDEST PUSH1 0x40 MLOAD DUP1 SWAP2 SUB SWAP1 RETURN JUMPDEST PUSH1 0x1 PUSH1 0x0 SWAP1 SLOAD SWAP1 PUSH2 0x100 EXP SWAP1 DIV PUSH20 0xFFFFFFFFFFFFFFFFFFFFFFFFFFFFFFFFFFFFFFFF AND DUP2 JUMP JUMPDEST PUSH1 0x2 PUSH1 0x14 SWAP1 SLOAD SWAP1 PUSH2 0x100 EXP SWAP1 DIV PUSH1 0xFF AND DUP2 JUMP JUMPDEST PUSH1 0x2 PUSH1 0x0 SWAP1 SLOAD SWAP1 PUSH2 0x100 EXP SWAP1 DIV PUSH20 0xFFFFFFFFFFFFFFFFFFFFFFFFFFFFFFFFFFFFFFFF AND PUSH20 0xFFFFFFFFFFFFFFFFFFFFFFFFFFFFFFFFFFFFFFFF AND CALLER PUSH20 0xFFFFFFFFFFFFFFFFFFFFFFFFFFFFFFFFFFFFFFFF AND EQ PUSH2 0x222 JUMPI PUSH1 0x40 MLOAD PUSH32 0x8C379A000000000000000000000000000000000000000000000000000000000 DUP2 MSTORE PUSH1 0x4 ADD PUSH2 0x219 SWAP1 PUSH2 0x836 JUMP JUMPDEST PUSH1 0x40 MLOAD DUP1 SWAP2 SUB SWAP1 REVERT JUMPDEST PUSH1 0x1 DUP1 PUSH1 0x3 DUP2 GT ISZERO PUSH2 0x237 JUMPI PUSH2 0x236 PUSH2 0x6E5 JUMP JUMPDEST JUMPDEST PUSH1 0x2 PUSH1 0x14 SWAP1 SLOAD SWAP1 PUSH2 0x100 EXP SWAP1 DIV PUSH1 0xFF AND PUSH1 0x3 DUP2 GT ISZERO PUSH2 0x259 JUMPI PUSH2 0x258 PUSH2 0x6E5 JUMP JUMPDEST JUMPDEST EQ PUSH2 0x299 JUMPI PUSH1 0x40 MLOAD PUSH32 0x8C379A000000000000000000000000000000000000000000000000000000000 DUP2 MSTORE PUSH1 0x4 ADD PUSH2 0x290 SWAP1 PUSH2 0x8A2 JUMP JUMPDEST PUSH1 0x40 MLOAD DUP1 SWAP2 SUB SWAP1 REVERT JUMPDEST PUSH1 0x3 PUSH1 0x2 PUSH1 0x14 PUSH2 0x100 EXP DUP2 SLOAD DUP2 PUSH1 0xFF MUL NOT AND SWAP1 DUP4 PUSH1 0x3 DUP2 GT ISZERO PUSH2 0x2BF JUMPI PUSH2 0x2BE PUSH2 0x6E5 JUMP JUMPDEST JUMPDEST MUL OR SWAP1 SSTORE POP PUSH1 0x0 DUP1 SLOAD SWAP1 PUSH2 0x100 EXP SWAP1 DIV PUSH20 0xFFFFFFFFFFFFFFFFFFFFFFFFFFFFFFFFFFFFFFFF AND PUSH20 0xFFFFFFFFFFFFFFFFFFFFFFFFFFFFFFFFFFFFFFFF AND PUSH2 0x8FC SELFBALANCE SWAP1 DUP2 ISZERO MUL SWAP1 PUSH1 0x40 MLOAD PUSH1 0x0 PUSH1 0x40 MLOAD DUP1 DUP4 SUB DUP2 DUP6 DUP9 DUP9 CALL SWAP4 POP POP POP POP ISZERO DUP1 ISZERO PUSH2 0x32A JUMPI RETURNDATASIZE PUSH1 0x0 DUP1 RETURNDATACOPY RETURNDATASIZE PUSH1 0x0 REVERT JUMPDEST POP POP JUMP JUMPDEST PUSH1 0x0 DUP1 SLOAD SWAP1 PUSH2 0x100 EXP SWAP1 DIV PUSH20 0xFFFFFFFFFFFFFFFFFFFFFFFFFFFFFFFFFFFFFFFF AND PUSH20 0xFFFFFFFFFFFFFFFFFFFFFFFFFFFFFFFFFFFFFFFF AND CALLER PUSH20 0xFFFFFFFFFFFFFFFFFFFFFFFFFFFFFFFFFFFFFFFF AND EQ PUSH2 0x3BC JUMPI PUSH1 0x40 MLOAD PUSH32 0x8C379A000000000000000000000000000000000000000000000000000000000 DUP2 MSTORE PUSH1 0x4 ADD PUSH2 0x3B3 SWAP1 PUSH2 0x934 JUMP JUMPDEST PUSH1 0x40 MLOAD DUP1 SWAP2 SUB SWAP1 REVERT JUMPDEST PUSH1 0x1 DUP1 PUSH1 0x3 DUP2 GT ISZERO PUSH2 0x3D1 JUMPI PUSH2 0x3D0 PUSH2 0x6E5 JUMP JUMPDEST JUMPDEST PUSH1 0x2 PUSH1 0x14 SWAP1 SLOAD SWAP1 PUSH2 0x100 EXP SWAP1 DIV PUSH1 0xFF AND PUSH1 0x3 DUP2 GT ISZERO PUSH2 0x3F3 JUMPI PUSH2 0x3F2 PUSH2 0x6E5 JUMP JUMPDEST JUMPDEST EQ PUSH2 0x433 JUMPI PUSH1 0x40 MLOAD PUSH32 0x8C379A000000000000000000000000000000000000000000000000000000000 DUP2 MSTORE PUSH1 0x4 ADD PUSH2 0x42A SWAP1 PUSH2 0x8A2 JUMP JUMPDEST PUSH1 0x40 MLOAD DUP1 SWAP2 SUB SWAP1 REVERT JUMPDEST PUSH1 0x2 DUP1 PUSH1 0x14 PUSH2 0x100 EXP DUP2 SLOAD DUP2 PUSH1 0xFF MUL NOT AND SWAP1 DUP4 PUSH1 0x3 DUP2 GT ISZERO PUSH2 0x458 JUMPI PUSH2 0x457 PUSH2 0x6E5 JUMP JUMPDEST JUMPDEST MUL OR SWAP1 SSTORE POP PUSH1 0x1 PUSH1 0x0 SWAP1 SLOAD SWAP1 PUSH2 0x100 EXP SWAP1 DIV PUSH20 0xFFFFFFFFFFFFFFFFFFFFFFFFFFFFFFFFFFFFFFFF AND PUSH20 0xFFFFFFFFFFFFFFFFFFFFFFFFFFFFFFFFFFFFFFFF AND PUSH2 0x8FC SELFBALANCE SWAP1 DUP2 ISZERO MUL SWAP1 PUSH1 0x40 MLOAD PUSH1 0x0 PUSH1 0x40 MLOAD DUP1 DUP4 SUB DUP2 DUP6 DUP9 DUP9 CALL SWAP4 POP POP POP POP ISZERO DUP1 ISZERO PUSH2 0x4C5 JUMPI RETURNDATASIZE PUSH1 0x0 DUP1 RETURNDATACOPY RETURNDATASIZE PUSH1 0x0 REVERT JUMPDEST POP POP JUMP JUMPDEST PUSH1 0x0 DUP1 SLOAD SWAP1 PUSH2 0x100 EXP SWAP1 DIV PUSH20 0xFFFFFFFFFFFFFFFFFFFFFFFFFFFFFFFFFFFFFFFF AND DUP2 JUMP JUMPDEST PUSH1 0x0 DUP1 SLOAD SWAP1 PUSH2 0x100 EXP SWAP1 DIV PUSH20 0xFFFFFFFFFFFFFFFFFFFFFFFFFFFFFFFFFFFFFFFF AND PUSH20 0xFFFFFFFFFFFFFFFFFFFFFFFFFFFFFFFFFFFFFFFF AND CALLER PUSH20 0xFFFFFFFFFFFFFFFFFFFFFFFFFFFFFFFFFFFFFFFF AND EQ PUSH2 0x57B JUMPI PUSH1 0x40 MLOAD PUSH32 0x8C379A000000000000000000000000000000000000000000000000000000000 DUP2 MSTORE PUSH1 0x4 ADD PUSH2 0x572 SWAP1 PUSH2 0x934 JUMP JUMPDEST PUSH1 0x40 MLOAD DUP1 SWAP2 SUB SWAP1 REVERT JUMPDEST PUSH1 0x0 DUP1 PUSH1 0x3 DUP2 GT ISZERO PUSH2 0x590 JUMPI PUSH2 0x58F PUSH2 0x6E5 JUMP JUMPDEST JUMPDEST PUSH1 0x2 PUSH1 0x14 SWAP1 SLOAD SWAP1 PUSH2 0x100 EXP SWAP1 DIV PUSH1 0xFF AND PUSH1 0x3 DUP2 GT ISZERO PUSH2 0x5B2 JUMPI PUSH2 0x5B1 PUSH2 0x6E5 JUMP JUMPDEST JUMPDEST EQ PUSH2 0x5F2 JUMPI PUSH1 0x40 MLOAD PUSH32 0x8C379A000000000000000000000000000000000000000000000000000000000 DUP2 MSTORE PUSH1 0x4 ADD PUSH2 0x5E9 SWAP1 PUSH2 0x8A2 JUMP JUMPDEST PUSH1 0x40 MLOAD DUP1 SWAP2 SUB SWAP1 REVERT JUMPDEST PUSH1 0x0 CALLVALUE GT PUSH2 0x635 JUMPI PUSH1 0x40 MLOAD PUSH32 0x8C379A000000000000000000000000000000000000000000000000000000000 DUP2 MSTORE PUSH1 0x4 ADD PUSH2 0x62C SWAP1 PUSH2 0x9A0 JUMP JUMPDEST PUSH1 0x40 MLOAD DUP1 SWAP2 SUB SWAP1 REVERT JUMPDEST PUSH1 0x1 PUSH1 0x2 PUSH1 0x14 PUSH2 0x100 EXP DUP2 SLOAD DUP2 PUSH1 0xFF MUL NOT AND SWAP1 DUP4 PUSH1 0x3 DUP2 GT ISZERO PUSH2 0x65B JUMPI PUSH2 0x65A PUSH2 0x6E5 JUMP JUMPDEST JUMPDEST MUL OR SWAP1 SSTORE POP POP JUMP JUMPDEST PUSH1 0x2 PUSH1 0x0 SWAP1 SLOAD SWAP1 PUSH2 0x100 EXP SWAP1 DIV PUSH20 0xFFFFFFFFFFFFFFFFFFFFFFFFFFFFFFFFFFFFFFFF AND DUP2 JUMP JUMPDEST PUSH1 0x0 PUSH20 0xFFFFFFFFFFFFFFFFFFFFFFFFFFFFFFFFFFFFFFFF DUP3 AND SWAP1 POP SWAP2 SWAP1 POP JUMP JUMPDEST PUSH1 0x0 PUSH2 0x6B4 DUP3 PUSH2 0x689 JUMP JUMPDEST SWAP1 POP SWAP2 SWAP1 POP JUMP JUMPDEST PUSH2 0x6C4 DUP2 PUSH2 0x6A9 JUMP JUMPDEST DUP3 MSTORE POP POP JUMP JUMPDEST PUSH1 0x0 PUSH1 0x20 DUP3 ADD SWAP1 POP PUSH2 0x6DF PUSH1 0x0 DUP4 ADD DUP5 PUSH2 0x6BB JUMP JUMPDEST SWAP3 SWAP2 POP POP JUMP JUMPDEST PUSH32 0x4E487B7100000000000000000000000000000000000000000000000000000000 PUSH1 0x0 MSTORE PUSH1 0x21 PUSH1 0x4 MSTORE PUSH1 0x24 PUSH1 0x0 REVERT JUMPDEST PUSH1 0x4 DUP2 LT PUSH2 0x725 JUMPI PUSH2 0x724 PUSH2 0x6E5 JUMP JUMPDEST JUMPDEST POP JUMP JUMPDEST PUSH1 0x0 DUP2 SWAP1 POP PUSH2 0x736 DUP3 PUSH2 0x714 JUMP JUMPDEST SWAP2 SWAP1 POP JUMP JUMPDEST PUSH1 0x0 PUSH2 0x746 DUP3 PUSH2 0x728 JUMP JUMPDEST SWAP1 POP SWAP2 SWAP1 POP JUMP JUMPDEST PUSH2 0x756 DUP2 PUSH2 0x73B JUMP JUMPDEST DUP3 MSTORE POP POP JUMP JUMPDEST PUSH1 0x0 PUSH1 0x20 DUP3 ADD SWAP1 POP PUSH2 0x771 PUSH1 0x0 DUP4 ADD DUP5 PUSH2 0x74D JUMP JUMPDEST SWAP3 SWAP2 POP POP JUMP JUMPDEST PUSH1 0x0 PUSH2 0x782 DUP3 PUSH2 0x689 JUMP JUMPDEST SWAP1 POP SWAP2 SWAP1 POP JUMP JUMPDEST PUSH2 0x792 DUP2 PUSH2 0x777 JUMP JUMPDEST DUP3 MSTORE POP POP JUMP JUMPDEST PUSH1 0x0 PUSH1 0x20 DUP3 ADD SWAP1 POP PUSH2 0x7AD PUSH1 0x0 DUP4 ADD DUP5 PUSH2 0x789 JUMP JUMPDEST SWAP3 SWAP2 POP POP JUMP JUMPDEST PUSH1 0x0 DUP3 DUP3 MSTORE PUSH1 0x20 DUP3 ADD SWAP1 POP SWAP3 SWAP2 POP POP JUMP JUMPDEST PUSH32 0x4F6E6C792074686520657363726F77206167656E742063616E2063616C6C2074 PUSH1 0x0 DUP3 ADD MSTORE PUSH32 0x6869732066756E6374696F6E2E00000000000000000000000000000000000000 PUSH1 0x20 DUP3 ADD MSTORE POP JUMP JUMPDEST PUSH1 0x0 PUSH2 0x820 PUSH1 0x2D DUP4 PUSH2 0x7B3 JUMP JUMPDEST SWAP2 POP PUSH2 0x82B DUP3 PUSH2 0x7C4 JUMP JUMPDEST PUSH1 0x40 DUP3 ADD SWAP1 POP SWAP2 SWAP1 POP JUMP JUMPDEST PUSH1 0x0 PUSH1 0x20 DUP3 ADD SWAP1 POP DUP2 DUP2 SUB PUSH1 0x0 DUP4 ADD MSTORE PUSH2 0x84F DUP2 PUSH2 0x813 JUMP JUMPDEST SWAP1 POP SWAP2 SWAP1 POP JUMP JUMPDEST PUSH32 0x496E76616C69642073746174652E000000000000000000000000000000000000 PUSH1 0x0 DUP3 ADD MSTORE POP JUMP JUMPDEST PUSH1 0x0 PUSH2 0x88C PUSH1 0xE DUP4 PUSH2 0x7B3 JUMP JUMPDEST SWAP2 POP PUSH2 0x897 DUP3 PUSH2 0x856 JUMP JUMPDEST PUSH1 0x20 DUP3 ADD SWAP1 POP SWAP2 SWAP1 POP JUMP JUMPDEST PUSH1 0x0 PUSH1 0x20 DUP3 ADD SWAP1 POP DUP2 DUP2 SUB PUSH1 0x0 DUP4 ADD MSTORE PUSH2 0x8BB DUP2 PUSH2 0x87F JUMP JUMPDEST SWAP1 POP SWAP2 SWAP1 POP JUMP JUMPDEST PUSH32 0x4F6E6C79207468652062757965722063616E2063616C6C20746869732066756E PUSH1 0x0 DUP3 ADD MSTORE PUSH32 0x6374696F6E2E0000000000000000000000000000000000000000000000000000 PUSH1 0x20 DUP3 ADD MSTORE POP JUMP JUMPDEST PUSH1 0x0 PUSH2 0x91E PUSH1 0x26 DUP4 PUSH2 0x7B3 JUMP JUMPDEST SWAP2 POP PUSH2 0x929 DUP3 PUSH2 0x8C2 JUMP JUMPDEST PUSH1 0x40 DUP3 ADD SWAP1 POP SWAP2 SWAP1 POP JUMP JUMPDEST PUSH1 0x0 PUSH1 0x20 DUP3 ADD SWAP1 POP DUP2 DUP2 SUB PUSH1 0x0 DUP4 ADD MSTORE PUSH2 0x94D DUP2 PUSH2 0x911 JUMP JUMPDEST SWAP1 POP SWAP2 SWAP1 POP JUMP JUMPDEST PUSH32 0x4465706F736974206D7573742062652067726561746572207468616E20302E00 PUSH1 0x0 DUP3 ADD MSTORE POP JUMP JUMPDEST PUSH1 0x0 PUSH2 0x98A PUSH1 0x1F DUP4 PUSH2 0x7B3 JUMP JUMPDEST SWAP2 POP PUSH2 0x995 DUP3 PUSH2 0x954 JUMP JUMPDEST PUSH1 0x20 DUP3 ADD SWAP1 POP SWAP2 SWAP1 POP JUMP JUMPDEST PUSH1 0x0 PUSH1 0x20 DUP3 ADD SWAP1 POP DUP2 DUP2 SUB PUSH1 0x0 DUP4 ADD MSTORE PUSH2 0x9B9 DUP2 PUSH2 0x97D JUMP JUMPDEST SWAP1 POP SWAP2 SWAP1 POP JUMP INVALID LOG2 PUSH5 0x6970667358 0x22 SLT KECCAK256 0x4E SIGNEXTEND 0xC5 DUP12 0xF6 LOG3 MOD GASPRICE 0xEE PUSH17 0x7BD6E38F6B9B5944123442AB05772DF009 0xEF 0xB8 SWAP4 GASLIMIT DUP5 PUSH5 0x736F6C6343 STOP ADDMOD AND STOP CALLER "
				},
				"gasEstimates": {
					"creation": {
						"codeDepositCost": "510000",
						"executionCost": "infinite",
						"totalCost": "infinite"
					},
					"external": {
						"buyer()": "2533",
						"confirmDelivery()": "infinite",
						"currentState()": "2633",
						"deposit()": "28956",
						"escrowAgent()": "2580",
						"refund()": "infinite",
						"seller()": "2515"
					}
				},
				"methodIdentifiers": {
					"buyer()": "7150d8ae",
					"confirmDelivery()": "5e10177b",
					"currentState()": "0c3f6acf",
					"deposit()": "d0e30db0",
					"escrowAgent()": "e1f6c098",
					"refund()": "590e1ae3",
					"seller()": "08551a53"
				}
			},
			"storageLayout": {
				"storage": [
					{
						"astId": 8,
						"contract": "contracts/Escrow.sol:Escrow",
						"label": "buyer",
						"offset": 0,
						"slot": "0",
						"type": "t_address"
					},
					{
						"astId": 10,
						"contract": "contracts/Escrow.sol:Escrow",
						"label": "seller",
						"offset": 0,
						"slot": "1",
						"type": "t_address_payable"
					},
					{
						"astId": 12,
						"contract": "contracts/Escrow.sol:Escrow",
						"label": "escrowAgent",
						"offset": 0,
						"slot": "2",
						"type": "t_address"
					},
					{
						"astId": 15,
						"contract": "contracts/Escrow.sol:Escrow",
						"label": "currentState",
						"offset": 20,
						"slot": "2",
						"type": "t_enum(State)6"
					}
				],
				"types": {
					"t_address": {
						"encoding": "inplace",
						"label": "address",
						"numberOfBytes": "20"
					},
					"t_address_payable": {
						"encoding": "inplace",
						"label": "address payable",
						"numberOfBytes": "20"
					},
					"t_enum(State)6": {
						"encoding": "inplace",
						"label": "enum Escrow.State",
						"numberOfBytes": "1"
					}
				}
			},
			"userdoc": {
				"kind": "user",
				"methods": {},
				"version": 1
			}
		}
	}
}